:1000000078E102209D59000035F80100895900006F
:100010008959000089590000895900008959000058
:100020000000000000000000000000002D5B000048
:100030008959000000000000995A00008959000009
:10004000455D0000455D0000455D0000455D000028
:10005000455D0000455D0000455D0000455D000018
:10006000455D0000455D0000455D0000455D000008
:10007000455D0000455D0000455D0000455D0000F8
:1004C80081F0004102E000BF83F0004330B54FEAFD
:1004D80041044FEA430594EA050F08BF90EA020F6A
:1004E8001FBF54EA000C55EA020C7FEA645C7FEAFD
:1004F800655C00F0E2804FEA5454D4EB5555B8BF20
:100508006D420CDD2C4480EA020281EA030382EA90
:10051800000083EA010180EA020281EA0303362D22
:1005280088BF30BD11F0004F4FEA01314FF4801CF5
:100538004CEA113102D0404261EB410113F0004F07
:100548004FEA03334CEA133302D0524263EB4303BE
:1005580094EA050F00F0A780A4F10104D5F1200E5C
:100568000DDB02FA0EFC22FA05F2801841F10001B7
:1005780003FA0EF2801843FA05F359410EE0A5F18B
:1005880020050EF1200E012A03FA0EFC28BF4CF0BC
:10059800020C43FA05F3C01851EBE37101F0004572
:1005A80007D54FF0000EDCF1000C7EEB00006EEB7F
:1005B8000101B1F5801F1BD3B1F5001F0CD3490809
:1005C8005FEA30004FEA3C0C04F101044FEA445260
:1005D80012F5800F80F09A80BCF1004F08BF5FEAE7
:1005E800500C50F1000041EB045141EA050130BDC7
:1005F8005FEA4C0C404141EB0101013C28BFB1F5D9
:10060800801FE9D291F0000F04BF01460020B1FA23
:1006180081F308BF2033A3F10B03B3F120020CDAF6
:100628000C3208DD02F1140CC2F10C0201FA0CF0D4
:1006380021FA02F10CE002F11402D8BFC2F1200C39
:1006480001FA02F120FA0CFCDCBF41EA0C019040EF
:10065800E41AA2BF01EB0451294330BD6FEA040438
:100668001F3C1CDA0C340EDC04F11404C4F1200223
:1006780020FA04F001FA02F340EA030021FA04F335
:1006880045EA030130BDC4F10C04C4F1200220FA8C
:1006980002F001FA04F340EA0300294630BD21FACA
:1006A80004F0294630BD94F0000F83F4801306BF90
:1006B80081F480110134013D4EE77FEA645C18BF84
:1006C8007FEA655C29D094EA050F08BF90EA020F1B
:1006D80005D054EA000C04BF1946104630BD91EA13
:1006E800030F1EBF0021002030BD5FEA545C05D116
:1006F8004000494128BF41F0004130BD14F5800455
:100708003CBF01F5801130BD01F0004545F0FE41C8
:1007180041F470014FF0000030BD7FEA645C1ABFFD
:10072800194610467FEA655C1CBF0B46024650EA34
:10073800013406BF52EA033591EA030F41F4002160
:1007480030BD00BF90F0000F04BF0021704730B5E6
:100758004FF4806404F132044FF000054FF00001BB
:1007680050E700BF90F0000F04BF0021704730B57C
:100778004FF4806404F1320410F0004548BF404251
:100788004FF000013EE700BF42004FEAE2014FEAA6
:1007980031014FEA02701FBF12F07F4393F07F4F81
:1007A80081F06051704732F07F4208BF704793F084
:1007B8007F4F04BF41F40021704730B54FF4607497
:1007C80001F0004521F000411CE700BF50EA01029A
:1007D80008BF704730B54FF000050AE050EA010243
:1007E80008BF704730B511F0004502D5404261EBB3
:1007F80041014FF4806404F132045FEA915C3FF4F4
:10080800D8AE4FF003025FEADC0C18BF03325FEA90
:10081800DC0C18BF033202EBDC02C2F1200300FA41
:1008280003FC20FA02F001FA03FE40EA0E0021FA66
:1008380002F11444BDE600BF70B54FF0FF0C4CF454
:10084800E06C1CEA11541DBF1CEA135594EA0C0F06
:1008580095EA0C0F00F0DEF82C4481EA030621EA41
:100868004C5123EA4C5350EA013518BF52EA03357C
:1008780041F4801143F4801338D0A0FB02CE4FF02E
:100888000005E1FB02E506F00042E0FB03E54FF05E
:100898000006E1FB03569CF0000F18BF4EF0010E56
:1008A800A4F1FF04B6F5007F64F5407404D25FEA52
:1008B8004E0E6D4146EB060642EAC62141EA555105
:1008C8004FEAC52040EA5E504FEACE2EB4F1FD0C47
:1008D80088BFBCF5E06F1ED8BEF1004F08BF5FEAC5
:1008E800500E50F1000041EB045170BD06F0004677
:1008F80046EA010140EA020081EA0301B4EB5C0424
:10090800C2BFD4EB0C0541EA045170BD41F480111B
:100918004FF0000E013C00F3AB8014F1360FDEBF40
:10092800002001F0004170BDC4F10004203C35DA1C
:100938000C341BDC04F11404C4F1200500FA05F39F
:1009480020FA04F001FA05F240EA020001F0004240
:1009580021F0004110EBD37021FA04F642EB0601B6
:100968005EEA430E08BF20EAD37070BDC4F10C04E0
:10097800C4F1200500FA04F320FA05F001FA04F2A4
:1009880040EA020001F0004110EBD37041F1000190
:100998005EEA430E08BF20EAD37070BDC4F120059B
:1009A80000FA05F24EEA020E20FA04F301FA05F203
:1009B80043EA020321FA04F001F0004121FA04F2AB
:1009C80020EA020000EBD3705EEA430E08BF20EA7B
:1009D800D37070BD94F0000F0FD101F000464000B5
:1009E80041EB010111F4801F08BF013CF7D041EA37
:1009F800060195F0000F18BF704703F0004652003B
:100A080043EB030313F4801F08BF013DF7D043EA0B
:100A18000603704794EA0C0F0CEA135518BF95EAC1
:100A28000C0F0CD050EA410618BF52EA4306D1D148
:100A380081EA030101F000414FF0000070BD50EA67
:100A4800410606BF1046194652EA430619D094EAF1
:100A58000C0F02D150EA013613D195EA0C0F05D1DB
:100A680052EA03361CBF104619460AD181EA03012F
:100A780001F0004141F0FE4141F470014FF00000E7
:100A880070BD41F0FE4141F4780170BD70B54FF082
:100A9800FF0C4CF4E06C1CEA11541DBF1CEA135502
:100AA80094EA0C0F95EA0C0F00F0A7F8A4EB0504E4
:100AB80081EA030E52EA03354FEA013100F08880DB
:100AC8004FEA03334FF0805545EA131343EA1263A4
:100AD8004FEA022245EA111545EA10654FEA002659
:100AE8000EF000419D4208BF964244F1FD0404F512
:100AF800407402D25B084FEA3202B61A65EB03056E
:100B08005B084FEA32024FF480104FF4002CB6EB2A
:100B1800020E75EB030E22BFB61A754640EA0C00AA
:100B28005B084FEA3202B6EB020E75EB030E22BFEA
:100B3800B61A754640EA5C005B084FEA3202B6EB2B
:100B4800020E75EB030E22BFB61A754640EA9C00EA
:100B58005B084FEA3202B6EB020E75EB030E22BFBA
:100B6800B61A754640EADC0055EA060E18D04FEA78
:100B7800051545EA16754FEA06164FEAC30343EA18
:100B880052734FEAC2025FEA1C1CC0D111F4801FE5
:100B98000BD141EA00014FF000004FF0004CB6E7DE
:100BA80011F4801F04BF01430020B4F1FD0C88BF7D
:100BB800BCF5E06F3FF6AFAEB5EB030C04BFB6EB88
:100BC800020C5FEA500C50F1000041EB045170BD7B
:100BD8000EF0004E4EEA113114EB5C04C2BFD4EBA8
:100BE8000C0541EA045170BD41F480114FF0000E2C
:100BF800013C90E645EA060E8DE60CEA135594EAA8
:100C08000C0F08BF95EA0C0F3FF43BAF94EA0C0FAA
:100C18000AD150EA01347FF434AF95EA0C0F7FF41F
:100C280025AF104619462CE795EA0C0F06D152EA73
:100C380003353FF4FDAE1046194622E750EA410657
:100C480018BF52EA43067FF4C5AE50EA41047FF468
:100C58000DAF52EA43057FF4EBAE12E74FF0FF3CCD
:100C680006E000BF4FF0010C02E000BF4FF0010C9E
:100C78004DF804CD4FEA410C7FEA6C5C4FEA430C17
:100C880018BF7FEA6C5C1BD001B050EA410C0CBF66
:100C980052EA430C91EA030F02BF90EA020F0020C8
:100CA800704710F1000F91EA030F58BF994208BF2F
:100CB80090422CBFD8176FEAE37040F001007047EC
:100CC8004FEA410C7FEA6C5C02D150EA013C07D143
:100CD8004FEA430C7FEA6C5CD6D152EA033CD3D08E
:100CE8005DF8040B704700BF8446104662468C4688
:100CF8001946634600E000BF01B5FFF7B7FF0028BB
:100D080048BF10F1000F01BD4DF808EDFFF7F4FFE3
:100D18000CBF012000205DF808FB00BF4DF808ED6E
:100D2800FFF7EAFF34BF012000205DF808FB00BF91
:100D38004DF808EDFFF7E0FF94BF012000205DF8B3
:100D480008FB00BF4DF808EDFFF7CEFF94BF012068
:100D580000205DF808FB00BF4DF808EDFFF7C4FF61
:100D680034BF012000205DF808FB00BF4FEA410CAA
:100D78007FEA6C5C02D150EA013C0AD14FEA430C8D
:100D88007FEA6C5C02D152EA033C02D14FF00000CA
:100D980070474FF0010070474FEA410212F5001208
:100DA80015D211D56FF47873B3EB625212D94FEAAA
:100DB800C12343F0004343EA505311F0004F23FA94
:100DC80002F018BF404270474FF00000704750EAE9
:100DD800013005D111F0004008BF6FF000407047A6
:100DE8004FF00000704700BF4FEA4102B2F1E04304
:100DF80024BFB3F5001CDCF1FE5C0DD901F0004CFA
:100E08004FEAC0024CEA5070B2F1004F40EB830049
:100E180008BF20F00100704711F0804F21D113F175
:100E28003872BCBF01F00040704741F480114FEAAE
:100E38005252C2F11802C2F1200C10FA0CF320FA37
:100E480002F018BF40F001004FEAC1234FEAD32354
:100E580003FA0CFC40EA0C0023FA02F34FEA4303BE
:100E6800CCE77FEA625307D150EA01331EBF4FF047
:100E7800FE4040F44000704701F0004040F0FE4062
:100E880040F40000704700BF7BB972B90029BEBFAB
:100E980000204FF0004106E008BF00281CBF6FF09B
:100EA80000414FF0FF3000F075B8ADF1080C6DE966
:100EB80004CE002909DB002B1ADB00F0B6F8DDF8B8
:100EC80004E0DDE9022304B07047404261EB4101D0
:100ED800002B1BDB00F0A9F8DDF804E0DDE90223B4
:100EE80004B0404261EB4101524263EB4303704757
:100EF800524263EB430300F098F8DDF804E0DDE9C3
:100F0800022304B0404261EB41017047524263EB57
:100F1800430300F08AF8DDF804E0DDE9022304B0B9
:100F2800524263EB4303704753B94AB9002908BFDB
:100F380000281CBF4FF0FF314FF0FF3000F02AB8F7
:100F4800ADF1080C6DE904CE00F06FF8DDF804E0AF
:100F5800DDE9022304B07047D0B500220B4B0646EA
:100F68000F46FFF769FC00F017F80446FFF7EAFBA5
:100F78000022074BFFF760FC02460B463046394615
:100F8800FFF7A2FA00F008F82146D0BD0000F03DB6
:100F98000000F041704700BF4A0011D212F500125C
:100FA80011D20DD56FF47873B3EB62520ED44FEAB9
:100FB800C12343F0004343EA505323FA02F0704739
:100FC8004FF00000704750EA013002D14FF0FF3077
:100FD80070474FF00000704710F8012B11F8013BE3
:100FE800012A28BF9A42F7D0D01A7047034613F84F
:100FF800012B002AFBD1181A0138704738B5002296
:10100800002304460D46FFF789FE28B920462946E5
:10101800BDE83840FFF7A0BF204605F10041FFF7C3
:101028009BFF404261EB410138BD2DE9F047864600
:101038008C460846089E154674461946002B40F013
:10104800C1808542B2FA82F245D94AB1C2F1200381
:1010580000FA02FC954094402EFA03F343EA0C0C84
:101068004FEA154EA8B2230CBCFBFEF80EFB18CCB9
:1010780008FB00F943EA0C43994528D9EB1808F115
:10108800FF3704D2994502D9A8F102072B44A3EBF4
:101098000903A4B2B3FBFEFC0EFB1C330CFB00F0EF
:1010A80044EA0344A04214D92C190CF1FF3304D2AA
:1010B800A04202D9ACF102032C44241A43EA0740A7
:1010C8001EB1D440002334607360BDE8F087474602
:1010D800DDE76346F1E792BB431B01214FEA154E5A
:1010E800AFB2200CB3FBFEFC0EFB1C330CFB07F865
:1010F80040EA0343984561D9EB180CF1FF3004D25C
:10110800984502D9ACF102002B44A3EB0803A4B222
:10111800B3FBFEFC0EFB1C330CFB07F744EA03444D
:10112800A7424DD92C190CF1FF3304D2A74202D99A
:10113800ACF102032C44E41B43EA0040C0E7C2F1CF
:1011480020039540944020FA03F12EFA03F34FEA66
:10115800154E9040AFB20343B1FBFEFC0EFB1C10D2
:10116800190C0CFB07F841EA0041884522D9691897
:101178000CF1FF3004D2884502D9ACF102002944B1
:10118800A1EB08019BB2B1FBFEFC0EFB1C110CFB92
:1011980007F743EA01439F420ED9EB180CF1FF31E0
:1011A80004D29F4202D9ACF102012B44DB1B41EA75
:1011B800004193E76046E3E76146F7E76046A4E746
:1011C8006346B8E7834206D916B9002108467CE78A
:1011D800C6E900E0F9E7B3FA83F78FB9834201D390
:1011E800724508D8BEEB020460EB030301209C465D
:1011F8001EB9002169E73846FAE7C6E9004CF8E766
:10120800C7F1200CBB400EFA07F522FA0CF42EFAAF
:101218000CF1BA401C4320FA0CF3B8404FEA1449C9
:1012280001431FFA84FEB3FBF9F809FB18300B0CD5
:1012380008FB0EFA43EA00439A4540D9E31808F13F
:10124800FF3004D29A4502D9A8F102002344A3EB47
:101258000A0389B2B3FBF9F809FB183308FB0EFE41
:1012680041EA03418E452CD9611808F1FF3304D2B5
:101278008E4502D9A8F10203214443EA0040A1EBBC
:101288000E01A0FB02984145CE46434602D306D143
:101298004D4504D20138B9EB020E68EB0403002E69
:1012A800A7D0B5EB0E0261EB030101FA0CFC22FAA0
:1012B80007F3F9404CEA0303C6E9003199E74046D1
:1012C800C5E74346D9E700002DE9F04F82461746A7
:1012D8001C4600259FB00391387810B9284600F0C5
:1012E800A9BD252809D00399D0470028C0F2A285B6
:1012F8007B1C01350593059FEEE71822002110A8F5
:1013080020F0F9FE7B78252B00F0BC80002398465E
:101318009E469C461846791C0E4611F8012B2B2A2E
:1013280000F0E38000F2DA80202A00F0E180232A2E
:1013380000F0E1802BB19DF8483043F040038DF870
:101348004830B8F1000F05D09DF8483043F020032D
:101358008DF84830BEF1000F05D09DF8483043F0B5
:1013680010038DF84830BCF1000F05D09DF84830C7
:1013780043F008038DF8483028B19DF8483043F011
:1013880004038DF848309DF8483003F0440144299F
:1013980003D16FF386138DF848309DF848302A2A18
:1013A80043F080030E968DF8483040F0A9809DF8F0
:1013B800493043F001038DF84930731C1A782E2AFE
:1013C8000CBF012100219DF8492061F341028DF8ED
:1013D80049200CD15A1C0E925A782A2A40F0A08033
:1013E8009DF84920023342F004028DF849201A780A
:1013F8006C2A00F0C18000F2A380682A00F0A9805E
:101408006A2A00F0C2804C2A00F0C78013F8012B2A
:10141800782A05938DF84B2000F209816D2A00F295
:10142800C980692A00F20381572A00F2E280412A22
:1014380004D0A2F14503022B00F2F98004219DF8A3
:101448004A3002F0DF02A2F1410961F30203D9F147
:1014580000029DF8491042EB090262F3C7110A061F
:101468008DF84A308DF84910CBB200F11F8103F096
:101478007802182A40F009816FF3C6038DF84930C5
:101488000023F8E08DF84B30BB1C05939DF84930DC
:101498009DF84A20DE0702F0070040F1098154F860
:1014A800041B0029049108DA9DF8481041F0040152
:1014B8008DF84810049949420491590740F1008178
:1014C80054F8046B002E80F2FF809DF849306FF3CA
:1014D80041038DF849304FF0FF36F5E02D2A0DD045
:1014E800302A7FF427AF012316E74FF0010C13E7EA
:1014F8004FF0010E10E74FF001080DE701200BE750
:101508000EA802F02BFD0E9BB3423FF457AF9DF897
:1015180048201390C00F60F341028DF848204DE732
:101528000EA802F01BFD9DF848301490C3F340024A
:1015380042EAD07262F341038DF848300E9B56E7B9
:10154800742A26D07A2A7FF461AF06219DF84920B3
:101558000CE05A78682A9DF8492006D1012161F3E8
:10156800C6028DF84920023350E7022161F3C60212
:101578008DF84920013349E75A786C2A9DF84920AB
:1015880001D10421EBE70321F0E705219DF849206B
:10159800ECE707219DF84920E8E7BDF8482022F448
:1015A800F04222F0020242F4804242F00202ADF818
:1015B8004820DFE76E3AD3B201229A4040F28243D4
:1015C8001A429DF8493039D112F0240F61D1D10760
:1015D8002DD503219DF84A2003F07803A3F1400894
:1015E80061F30202D8F100038DF84A2043EB0803A7
:1015F80041E00120A2F15801C9B200FA01F111F449
:10160800624F7FF41BAF40F6010319429DF8493041
:101618001AD111F4043F0AD09DF84A2060F302025F
:1016280003F07803402B8DF84A207FF429AF9DF80A
:10163800483043F001038DF8483021E702219DF836
:101648004A2061F30202EBE702209DF84A1003F0FA
:10165800780360F30201402B8DF84A1002BF9DF811
:10166800481041F001018DF84810632A7FF408AF53
:10167800003B18BF01239DF84820C2F340010B43EB
:1016880063F341028DF8482000E713F0380FCED1FC
:10169800F6E603219DF84A2013F0780F61F3020261
:1016A80014BF012300238DF84A20E4E70123E2E771
:1016B8009DF948100029ACBF4FF0FF311399FBE6A4
:1016C8009E077FF508AF149E00230428CDE9133345
:1016D8009DF8493007D1990705D49DF9491000298B
:1016E800ACBF06260D2602F00702012AC3F3C30386
:1016F80032D1DA1E042A04D8DFE802F0204545205A
:1017080020002268012B4FEAE271CDE910211BD19C
:101718009DF94020D117CDE9102104349DF84820C7
:10172800069292074FD03A465046059B03991DF002
:10173800F8FB0028C0F27E830544DCE554F8042B4E
:10174800D117CDE91021E9E7022BE6D111B242F316
:10175800C032CDE91012E0E7022A24D1DA1E042AA9
:1017680004D8DFE802F0181010181800012B4FF009
:10177800000154F8042B14D0022BCDE91021CDD14F
:1017880092B21092CAE7073424F00704F4E8020181
:10179800CDE91001C2E754F8042B109200221192EF
:1017A800BCE7D2B2CDE7042A08D1073424F00704F5
:1017B800D4E900010834CDE91001AFE7032AADD11F
:1017C80054F8042BDDE79DF84B80B8F1780F3FF60D
:1017D80092ADB8F1570F5CD8B8F1250F00F0A4808E
:1017E800B8F1240F7FF687ADB8F1410F04D0A8F106
:1017F8004503022B3FF67FADDDE91023002BC0F235
:101808004D810699080700F14C81C1F300194FEA90
:101818004919C3F30A51C3F31303002940F0448163
:1018280052EA030014BF4FF0010C4FF0000CD8022D
:1018380040EA5250D702CDE90C70B8F1460F47EA9A
:10184800010740EAE17008BF4FF06608384300F02E
:10185800B781BCF1000F10D01B0343EA12531703E2
:101868003A4618464FF0000C002880F25681BCF129
:10187800000F40F05981CDE90C730D9BA1F2FE3B9E
:1018880043F000430D930021DDE90C230F460520AA
:1018980060E1A8F15802202A3FF62DAD01A151F8C8
:1018A80022F000BF771A0000FF120000FF120000AC
:1018B800FF120000FF120000FF120000FF120000DC
:1018C800FF120000FF12000001180000FF120000C4
:1018D800231A0000371A0000011800000118000040
:1018E80001180000FF120000371A0000FF12000064
:1018F800FF120000FF120000FF1200007D1A000016
:10190800771A0000C7190000FF120000FF1200003C
:1019180041190000FF120000771A0000FF120000B2
:10192800FF120000771A000040460399D0470028AC
:10193800C0F280820135DEE4002E109F3BDB314689
:10194800384620F02EFD002F3FF4D5AC4FF00009AB
:101958003E18F31B9DF84A2012F01001069100F082
:101968005E82023312F04002DDF84C80089218BF04
:10197800149A434418BF9B18049ACDF81C80002A77
:1019880040F36882D31A9DF8482004935007C2F3A5
:10199800800B00F15F82510640F14F82B9F1000FD0
:1019A80007D048460399D0470028C0F24382D94659
:1019B8000135302242E23846FFF718FBC6E7109897
:1019C800002800F027820DF175030093002117AB62
:1019D80012AA02F0D9FA4FF000090746BDF84A30BA
:1019E80003F0EF0343F4F04343F01003ADF84A303B
:1019F800002E0CDB9DF848200DF17503DB1B6FF3FF
:101A080086129E428DF8482001D9F31A1393002FAD
:101A18003FF471AC0DF175066DE0109B4FF00009B5
:101A28008DF85C300DF15D06012317AF92E7069B38
:101A38001F0754BFC3F300194FF02B09DDE910232A
:101A480058BF4FEA4919002B06DA4FF02D095242C8
:101A580063EB4303CDE91023DDE910010DF17503B4
:101A6800009312AA17AB02F08FFA0746C0E74FF0AF
:101A78000009F1E7109A072B3FF63DACDFE803F0C9
:101A88000C04060C08080C0C157034E4158032E4BC
:101A9800EB17C2E900532EE415602CE44FF02D0932
:101AA800B7E64FF02B09B4E640F2FF70814231D11E
:101AB800A34908F101085FFA88F811F808101343E0
:101AC80001F003011ED101290BBF492369234E21CF
:101AD8006E210CBF462266228DF85C309DF8483096
:101AE8008DF85D106FF386138DF85E208DF8483001
:101AF8000DF15F0617AFF31BB9F1000F3FF42AAFE2
:101B0800013327E7012915BF6E234E2361214121A7
:101B18001A46E1E74FF0000C89E692184FF0010CE5
:101B280001F1FF3140419FE6CDE90C20A5E65208BE
:101B380042EAC3725B08B3F1333F59460BF1010B1C
:101B4800F5D201F1020B012100FB03FCA2FB0023EB
:101B5800013F63441BF1020FE9DB09B1CDE90C2316
:101B6800DDE90C32BBF1000F2DDCCBF10401A1F152
:101B780020000BF11C0B02FA0BFB22FA00F0CA4002
:101B8800CB40079208F0DF0243EA0B03472A43EAF7
:101B980000037BD1F91C01DBBE422ADAA8F1020856
:101BA800002E5FFA88F87ADD9DF84820013E9206FB
:101BB80075D4B6F1000B18BF4FF0010B721C26E06C
:101BC8004FF0000B5FE6023342F100020CA80BF164
:101BD800FF3B0137CDE90C321DF074F9DDE90C3219
:101BE800DB185241002A0BF1FF3BF9DACDE90C3240
:101BF800B6E79DF84820F61B90064DD4B6F1000BC9
:101C080018BF4FF0010BF2194FF066084AD4102A9A
:101C1800A8BF10229FED487B10208DED0E7B0B9006
:101C2800DDE90E01002A3FD1079A1B1842EB01019A
:101C3800B1F1805F47D2CDE90C31069BB8F1660F50
:101C480003F0200240F0C680002F47DC30238DF8D7
:101C58005C30002A76D1002E40F3BD812E238DF80A
:101C68005D3087B17B42B342A8BF3346002B139344
:101C7800A6EB0306D4BF002301239DF84A2063F393
:101C880045128DF84A200DF15E0340E0B8F1660F69
:101C98004FF0000BB7D091E74FF0000BB3E74FF0D0
:101CA800000B8BE70022B5E7400840EAC1704908FD
:101CB800CDE90E010EA8CDE908231DF003F9089A15
:101CC800099B013AACE75B0843EAC1730CA84908D1
:101CD800CDE90C3101371DF0F5F8AEE717AB0B99DC
:101CE80000290BDD0BA90CA8CDE906321DF002F97D
:101CF800069B013F079A03F8010BF0D11397AAB985
:101D0800002E40F366812E2103F8011B0027002EC8
:101D180021DD0B9A002A1EDD0BA90CA806931DF0E5
:101D2800E9F8069B013E03F8010BF0E72E2203F8C1
:101D3800012BEBE7AFF30080000000000000000873
:101D4800E51505002E238DF85D30002F9BD0002E61
:101D580088DC0DF15E03BBF1000F4FD114961E46CF
:101D680008F0DF03452B24D1002FBABF7F422D2373
:101D78002B23632FC8BF64227370C4BFB7FBF2F371
:101D880002FB13774FF00A02C8BF03F13001B7FB1B
:101D9800F2F3C8BFB17003F1300102FB137386F888
:101DA800008003F13003D4BF0236033631707370FC
:101DB8000236139B002B2BDC149B002BD4BF002373
:101DC80001239DF84A2063F3861200238DF84A20E8
:101DD80033708FE60BA90CA806921DF08BF8069AB3
:101DE80030288DF85C0018BF07F1FF3712B9002EB4
:101DF80040F3F1802E238DF85D3044E71E4616F837
:101E0800012C013B302AF9D02E2A08BF1E46A7E72D
:101E18000123D6E7714E81460523771F9AE51107FE
:101E280048BF01339EE5104609920399D047002820
:101E3800099A05DA1FB0BDE8F08F2022DDF810B04E
:101E4800594600290BF1FF3BEDDC049BCDF810B09F
:101E58002B445D1AB9F1000F05D048460399D047C5
:101E68000028E7DB0135089B002B77D09DF9493026
:101E7800002B28DB3B46DFF8689118789B4619F859
:101E88000020013352073FD49DF84A30EF1B9806D3
:101E98005F4407D44246002A08F1FF383BDC079B21
:101EA8003B449F1A9BF800002E280AD10399D0477B
:101EB8000028BFDBB8F1000F07F1010731DC0BF197
:101EC800010B5D4638E0B94699F80000C84670280D
:101ED80009F1010913D1EF1B149D47443D44EB1B45
:101EE800002B33DC33464246504603991DF019F85F
:101EF80000289FDB3844049E0546064464E00399A5
:101F0800D0470028E0DA95E706930399D0470028E0
:101F1800069BB2DA8EE730200399D0470028B9DA59
:101F280088E730200399D04708F1FF38C0E70399C4
:101F3800D0470028FFF67EAF2878A84619F8003069
:101F480001355907F3D4A7EB0B07C5E730200399F0
:101F5800D0470028FFF66EAF0137C0E79DF84A303A
:101F6800DA0601D41B0706D530200399D04700288C
:101F7800FFF660AF0135069B3BB103999DF84B0016
:101F8800D0470028FFF656AF0135A84406E03020B8
:101F98000399D0470028FFF64DAF0135A8EB05039C
:101FA800002BF4DC33463A46504603991CF0B9FF3F
:101FB8000028FFF63FAF28449DE720200399D0472B
:101FC8000028FFF637AF0135731B002BF5DCFFF750
:101FD80092B91746BFE60DF15D03BCE60BD90400C4
:101FE800E6150500000000002DE9F84F4FF000430A
:101FF8002DED028B23FA00F057EC106B59EC118B86
:1020080093468A46FEF7AEFB424604460D464B46CB
:1020180030463946FEF710FC02460B462046294654
:10202800FEF70AFC02460B4643EC182B0AA3D3E939
:102038000023FEF791FE08B19FED078B59465046E5
:10204800B0EE480AF0EE680ABDEC028BBDE8F84F26
:1020580006F032BEAFF300800000C0FFFFFFDF4193
:102068002DE9F74F0446DDE90C7BC86816469A4609
:102078000D46FEF789FB8046F0688946FEF784FB2B
:1020880002460B4640464946FEF7D6FB804689463F
:10209800BAF1000F1BD0DAF80C00FEF775FB024608
:1020A8000B4640464946FEF70FFA8046F86821F08D
:1020B8000049FEF769FB02460B4640464946FEF7D3
:1020C800E5FC12A3D3E90023FEF732FE50B13B46EC
:1020D800324629462046CDF830B003B0BDE8F04F6F
:1020E80006F04CBE064B20460093656940F2431348
:1020F800044A0549A847012003B0BDE8F08F00BF96
:1021080032FF040087FE0400DCFE04007B14AE47A7
:10211800E17A943F000000002DE9F0432DED028B99
:1021280099460B7889B0072B04460F461546129E30
:102138001AD140F20241836B984740B9AC4B0093E7
:10214800272365692046AB4AAB49A84799E0B062A6
:1021580040F202412046A36B984720B9A74B009351
:1021680065692B23EEE7F0622A783B78072A08D1C5
:10217800092B3DD0072B13D0A14B00936569312360
:10218800E0E79A4234D0CDE902329E4B01939E4B50
:102198000093342365692046964A9C49A84770E015
:1021A800D5F81080B8F1000F09D00023CDE90283DB
:1021B800974B0193974B009365693923EBE74146A9
:1021C800DFED950A47F6FF709FED940AB36A944ACB
:1021D80009F02AFFF36A4146DFED8F0A9FED910A65
:1021E800914A924809F020FF2B69F361EB6833624A
:1021F80097F80080B8F1090F45D0B8F1070F40F003
:1022080037813B694BB10022CDE90232804B019303
:10221800874B009365695B23BDE72A6942B1CDE925
:1022280002237B4B01937B4B009365695C23B2E7E8
:10223800DFED807A95ED037AB4EEE77AF1EE10FAE5
:10224800DFED7D6ACCBF77EE677A77EEC77AF4EE7A
:10225800E67AF1EE10FA7EDD4FF07C53002217EE9D
:10226800100ACDE90423FEF78FFA744BCDE9020179
:102278000193734B00935D23656920465D4A71495C
:10228800A847012086E02878072832D12B6913F562
:10229800004F09D0654ACDE902326B4B01935D4B83
:1022A80000936569622376E7DFED687A95ED037A36
:1022B800B4EEE77AF1EE10FADFED656ACCBF77EE9F
:1022C800677A77EEC77AF4EEE67AF1EE10FA66DD11
:1022D8000022604B17EE100ACDE90423FEF754FAEA
:1022E8005D4BCDE902010193554B0093656963236A
:1022F800C3E7092812D0666905F0BCF805464046D0
:1023080005F0B8F8554BCDE9025001933D4B0093C9
:1023180066232046374A5249B047B2E72B6913F182
:10232800800F0AD06FF07F02CDE902324D4B019346
:10233800384B0093656967232DE795ED037ADFED48
:102348004A7AB4EE677AF1EE10FA28D0474B009338
:1023580065696823F6E6F868FEF716FA0446D9F8C0
:1023680000000D46FEF710FA02460B4620462946A5
:10237800FEF762FA1CA3D3E90023FEF787FB06F1F8
:10238800080841EC100B404607A906F04DFC079BD6
:10239800F360002009B0BDEC028BBDE8F083F8685B
:1023A800FEF7F2F941EC180BD9F80000FEF7ECF94A
:1023B80006F1080441EC100BB0EE481AF0EE681A6A
:1023C8002146052007AAFFF70FFE07991F22F16093
:1023D80005201EF05FFDFEF7C5F901F10041FEF78B
:1023E800DBFCB061D5E700BF140014001400243FE3
:1023F800E713050089130500DCFE0400FE13050041
:10240800F0FF04009A020500A70205005AFF040025
:1024180030FF0400C204050080000038A000203905
:10242800B91B020080008037AB1B02000080FFFF51
:10243800A9040500000000386F1203334114050099
:102448004D140500211405006214050000008037B2
:102458006F1283320000F03E691405007514050000
:1024680028110500811405000000803B8614050032
:10247800B8F1010F0FD04046666904F0FBFF05462E
:10248800012004F0F7FF104BCDE9025001930F4BE8
:10249800009385233DE7287801280ED0666904F06B
:1024A800E9FF0546404604F0E5FF074BCDE9025039
:1024B8000193074B009386232BE7D9F80000FEF71A
:1024C80063F9C6E9000164E7A8140500A70205003E
:1024D8009A0205000000000051EC100BC1F30A53EA
:1024E8002DE9F041A3F2FF360C4605468046132E2F
:1024F80035DC002E17DA34A3D3E90023FDF7E6FF15
:1025080000220023FEF728FC50B1002C56DA24F0F4
:1025180000442C430025AC422D4C08BF4FF000442A
:102528002146284624E02B4F374101EA070303439D
:102538001ED025A3D3E90023FDF7C8FF00220023FE
:10254800FEF70AFC0028EBD0002C4FF00005BEBFB8
:102558004FF480133341E41824EA0704E0E7332EEC
:102568000ADDB6F5806F03D102460B46FDF7AEFFD4
:1025780041EC100BBDE8F081A3F213434FF0FF3795
:10258800DF400742F4D010A3D3E90023FDF79EFFF4
:1025980000220023FEF7E0FB0028C1D0002C0ADA55
:1025A800142E01D1013406E0C6F134060123B340EC
:1025B8001D444545F6D325EA0705B1E700252C4615
:1025C800AEE700BFAFF300809C7500883CE4377E1F
:1025D8000000F0BFFFFF0F002DE9F04F476A97B0EA
:1025E8008346209E08910C92129355EC104B8DED6A
:1025F800000B7FB910201AF0BDFF0246CBF824006B
:1026080020B9A74BEA21A7481AF084FFC0E901774F
:102618000760C760DBF82430196859B15A6801238C
:10262800584693404A608B601BF04AFFDBF8243021
:1026380000221A602B1EB7BF23F00043002301229B
:102648000193A8BF3360019F974BB8BF3260BB436B
:1026580019D142F20F73129A1360C7F3130323437D
:1026680000F0DB85219B53B9904B21E0904B0393FD
:102678000833219A1360039817B0BDE8F08F8B4B8D
:1026880003930333F5E79DED007B0022002351EC13
:10269800170B8DED0A7BFEF737FB804650B10123FF
:1026A800129A1360219B13B1824B219A1360824BBB
:1026B8000393E0E7C7F30A5614AA15A958469DEDF7
:1026C8000A0B1CF085F90290002E76D00B9BA6F21F
:1026D800FF36CDF84C80C3F3130343F07F53DDE995
:1026E8000A0143F4401319460022744BFDF7ECFE2F
:1026F80065A3D3E90023FEF79FF865A3D3E9002378
:10270800FDF7E4FE04460D463046FEF72BF862A3BB
:10271800D3E90023FEF790F802460B4620462946E7
:10272800FDF7D4FE04460D46FEF736FB00220746A9
:10273800002320462946FEF7F1FA40B13846FEF755
:1027480011F822462B46FEF7DFFA00B9013F162F93
:1027580052D85B4B03EBC703DDE90A01D3E9002339
:10276800FEF7DCFA002849D0013F00231193149B9F
:102778009B1B5A1E4CBFC3F101030023079245BFA0
:102788000693002306930793002F39DB079B1097C6
:102798003B44079300230993089B092B66D8052B14
:1027A800C5BF043B002401240893089B023B032B6C
:1027B80067D8DFE803F02D3A3859DDE914631E4481
:1027C80006F23243202BC9BFC3F14003C3F12003F3
:1027D8009F4006F21243D8BF04FA03F006F1FF3611
:1027E800C4BF24FA03F347EA0300FDF7ABFF012255
:1027F800A1F1F873139276E70123B7E71190B6E7D2
:10280800069BDB1B06937B42099300231093C3E7C7
:1028180000230D930C9B002B56DC012399461A4686
:1028280004930C920CE00123F3E700230D930C9B17
:10283800FB1803F1010904934B46012BB8BF012390
:10284800DBF824000021042202F114059D423FD93F
:10285800416058461BF0F4FD039000283BD1194B0A
:1028680002464FF4D571CEE60123DFE701240023A9
:102878000D9408934FF0FF330022994604931223D6
:10288800CFE701230D93F5E761436F63A787D23F35
:10289800B3C8608B288AC63FFB799F501344D33F47
:1028A80032170500491705000000F07F2E170500B4
:1028B8002517050031FF040030FF04000000F83F31
:1028C800C0EE0200BD1705000C9B99460493B7E7BC
:1028D80001315200B8E7DBF82430B9F10E0F039A42
:1028E8001A606FD8002C6DD0002F36DD07F00F026C
:1028F800A04BF8054FEA271403EBC20393ED007BC6
:102908008DED0E7B17D59C4B04F00F044FF0030898
:10291800D3E90823DDE90A01FEF7B8F8CDE900019B
:10292800954D5CB9DDE90E23DDE90001FEF7AEF84F
:10293800CDE900012BE04FF00208F1E7E10709D5E6
:1029480008F10108DDE90E01D5E90023FDF774FF60
:10295800CDE90E0164100835E3E700F007817C42F9
:10296800844B854D4FF0020804F00F02241103EB4D
:10297800C203DDE90A01D3E90023FDF75DFF002367
:10298800CDE90001002C40F0E580002BD0D1119B4F
:10299800DDE90045002B00F04C810022774B2046F2
:1029A8002946FEF7BBF9002800F04381B9F1000F72
:1029B80000F03F81049B002B00F3E480DDE90A343A
:1029C800CDE90034159B002B02DB0E2F40F3428229
:1029D8000D9A002A40F06782099C0025DDF81880CE
:1029E800B8F1000F0DD0079B002B0ADD4345069A6E
:1029F800A8BF4346D21AA8EB03080692079AD31A2F
:102A08000793099B0BB30D9B002B00F0A682002CAB
:102A180000F0A1822946224658461BF07BFE029A06
:102A28000146054658461BF0CBFD02990646584616
:102A38001BF046FD099B1B1B099300F09182099A24
:102A4800314658461BF066FE0290012158461BF09D
:102A5800A1FD109B0446002B00F084821A46014613
:102A680058461BF057FE089B0446012B03DC009BCD
:102A7800002B00F07C820026236904EB830318698D
:102A88001FF005FEC0F120001096079B184410F0B7
:102A98001F0000F09182C0F12003042B40F38182D3
:102AA800C0F11C00069B034480440693079B034423
:102AB8000793069B002B05DD1A46029958461BF022
:102AC80083FE0290079B002B05DD21461A465846D7
:102AD8001BF07AFE0446119B002B00F076822146FB
:102AE80002981FF023FE002880F26F8200230A223A
:102AF800029958461BF006FD0D9B7E1E0290002B86
:102B080000F05C82002329460A2258461BF0FAFC92
:102B1800049B0546002B03DC089B022B00F35E8216
:102B2800B8F1000F05DD2946424658461BF04CFE19
:102B38000546109B002B00F0D082696858461BF0B0
:102B48007FFC0746002840F07F820D4B024640F28A
:102B5800EA2158E5E20706D508F10108D5E900237E
:102B6800FDF76AFE0123641008350BE74FF00208F1
:102B78000DE700BFC0EE020098EE02000000F03F33
:102B8800BD17050020460022AC4B2946FDF754FE30
:102B98007E1E08F10108049CCDE900014046FDF7BE
:102BA800E1FDDDE90023FDF747FEA54B0022FDF717
:102BB8008DFCA1F15073CDE90E010F93002C3BD190
:102BC8000022A04BDDE90001FDF77EFC02460B4622
:102BD800CDE90023DDE90E23FEF7BEF8002840F01A
:102BE8005781DDE90E2101F10043DDE90001FEF71F
:102BF80095F800283FF4E2AE002425460C9BDDF84A
:102C08000CA0DE434FF00008214658461BF058FC44
:102C1800002D00F0A980B8F1000F05D0A84503D019
:102C2800414658461BF04CFC294658461BF048FCC8
:102C38009AE03E464C46B1E7834B03EBC40353E9A5
:102C48000201039B1C440D9B002B4AD002460B46F5
:102C580000207E49FDF71AFFDDE90E23FDF734FC5D
:102C6800DDF80CA0CDE90E01DDE90001FEF794F8CE
:102C78000546FDF777FD024630350B46DDE90001D4
:102C8800FDF722FC0AF8015B02460B46CDE900017C
:102C9800DDE90E01FEF760F8002865D100206C49D7
:102CA800DDE90023FDF710FC02460B46DDE90E01C5
:102CB800FEF752F8002840F00D81A24500F0EA80A6
:102CC80000225E4BDDE90E01FDF7B6FD00225B4BED
:102CD800CDE90E01DDE90001FDF7AEFDCDE900010A
:102CE800C2E7DDE90E23FDF7A7FDA046DDF80CA03D
:102CF800CDE90E01DDE90001FEF74EF80546FDF7C6
:102D080031FD024630350B46DDE90001FDF7DCFBFD
:102D18000AF8015B02460B46A245CDE900234FF0B5
:102D2800000223D1494BDDE90E01FDF7CFFB024636
:102D38000B46DDE90001FEF70FF8002840F0CA80D5
:102D480000204249DDE90E23FDF7BEFB02460B4693
:102D5800DDE90001FDF7E2FF70B1C24608F1FF3876
:102D68001AF8013C302BF8D0374655E0334BFDF7C5
:102D780063FDCDE90001BDE7DDE90A34CDE90034A2
:102D8800159B002BFFF628AE0E2F3FF725AE2E4BD6
:102D980003EBC70393ED007B0C9B002B8DED047BAD
:102DA80002DAB9F1000F64D0DDF80CA0DDE90045C6
:102DB800DDE9042320462946FDF768FEFDF7ECFF10
:102DC8000646FDF7CFFCDDE90423FDF735FD024695
:102DD800204606F130040B462946FDF775FB0AF834
:102DE800014B039C02460B46AAEB0404A14540F0A4
:102DF8008280FDF76BFB04460D46DDE90423FDF7F1
:102E0800ABFF002865D120462946DDE90423FDF7FC
:102E18007BFF08B1F3075CD4029958461BF050FBBE
:102E2800002301378AF80030129B1F60219B002B7A
:102E38003FF421ACC3F800A01DE400BF000024400B
:102E480000001C4000001440C0EE02000000E03FFB
:102E58000000F03FA24B03EBC70393ED007B0C9BF4
:102E6800002B8DED047B9FDAB9F1000F9CDC7FF419
:102E7800C3AE00229B4BDDE90401FDF7DDFCDDE973
:102E88000023FDF75FFF044600287FF4B5AE3E46F9
:102E98002546B4E0DDE90A34CDE90034159B002B62
:102EA80001DB0E2FD6DD089A012A36DC139A82B38D
:102EB80003F23343099CDDF81880069A012158462D
:102EC8001A440692079A1A4407921BF063FB0546B8
:102ED80086E53E4653469A4613F8012D392A06D10F
:102EE800039A9A42F7D13022039901360A701A7868
:102EF80001321A7038E700227B4BFDF79DFC002257
:102F0800002304460D46FDF7FFFE00283FF450AFAE
:102F180082E7149BC3F13603CCE709F1FF34099B20
:102F2800A34208DBB9F1000FA3EB04040EDBDDF8C4
:102F380018804B46C1E7099B109AE31A0994DDF8FB
:102F4800188000241A444B461092B6E7069BA3EB60
:102F580009080023B1E7029E71E5099A029970E514
:102F6800029672E5089B012B17DC009BABB9019B0D
:102F7800C3F313039BB9019B23F00046360D3605B6
:102F880036B1069B012601330693079B013307934D
:102F9800109B002B7FF470AD1096012075E500267C
:102FA800F6E73FF486AD1C33069A1A449844069215
:102FB800079A1A4407927CE50346F4E7049B002B22
:102FC8002BDC089B022B09DC27E0B9F1000F1DDC84
:102FD800089B022B1ADD3E46CDF81090049B002B6F
:102FE8007FF40CAE2146052258461BF08BFA0146A9
:102FF800044602981FF09AFB00287FF7FFADDDF822
:103008000CA0312301360AF8013BFBE50D9B3E4637
:10301800CDF81090002B7FF483AD039F21460298D2
:103028001FF0CBF9039B00F13009049A07F8019BC4
:10303800FB1A9A4240F3CB8000230A220299584691
:103048001BF060FA0290E9E72A6905F10C010C30DF
:10305800023292001FF042F80122394658461BF00E
:10306800B3FB039BA846054603F1010ADDE90323E8
:1030780013440793009B03F0010309930AF1FF33FC
:103088002146029804931FF098F94146069000F1F2
:10309800300902981FF04AFB2A462146074658463F
:1030A8001BF0FEFBC268014602B358461BF008FA43
:1030B800002F3ADA0122029958461BF085FB214677
:1030C80002901FF033FB002803DC29D119F0010F0F
:1030D80026D0B9F1390F1DD132E02846C1E700BF2B
:1030E800C0EE020000001440000024400A9002983C
:1030F8001FF01CFB0A990C9058461BF0E1F90C9A3A
:103108005ABB089B53B9099B43B9B9F1390F17D07A
:10311800002F05DD069B03F1310901E0002F2ADAB3
:10312800DDF810A00AF8019B6EE5089B3B4304D12B
:10313800009B03F00103002BBCD0B9F1390F36D145
:10314800049F392307F8013BBA46013F1AF8013CAE
:10315800392B5AD001333B7056E5002F06DB089B0C
:103168003B4306D1009B03F0010313B9002AA1DCFD
:10317800D6E7002AE1DC079B57460AF8019C53452D
:103188002ED000230A22029958461BF0BBF9A84505
:1031980002904FF000034FF00A02414658460BD107
:1031A8001BF0B0F9804605460AF1010A66E7DDF82A
:1031B80010A009F10109B5E71BF0A4F929468046DA
:1031C80000230A2258461BF09DF90546ECE7049BAC
:1031D8004FF00008002BCCBF1F460127039B1F445C
:1031E8000122029958461BF0EFFA214602901FF07F
:1031F8009DFA0028A8DC02D119F0010FA4D1BA4623
:1032080017F8013D302BFAD0FEE4039BBB429BD15B
:103218003123039A01361370F6E4219B002B7FF4C7
:1032280025AA014BFFF744BA251705004FF0FF33D5
:1032380070B586B0CDE90333214E224C224D05935B
:103248004FF0FF324FF0FF33304619F0DFF8E388D4
:1032580062899B1A9BB2B3F5F57FF1D30023294607
:103268004FF4F572204601931BF0FFFF174B2846D9
:103278001B7801A9A3B100F04DFCDDE903200599F5
:10328800019B824203900491059303D18A4201D1A4
:10329800934208D06422002120461BF0C4FFD6E7E1
:1032A80000F0C6FBE9E70A49042251F8231009484F
:1032B8001BF0F1FD4FF0FF33CDE903330593E9E748
:1032C800A8130020C000002038290220222B022049
:1032D80090000020BAD4040010B50B4C0B4B227898
:1032E8001979186882F0010222701BF057FC2178C6
:1032F800074A084B084800290CBF11461946BDE883
:1033080010401BF0C8BD00BF222B0220D4000020B3
:10331800E1D40400DCD40400E5D404002DE9F04F26
:103328009BB09F4C20461EF026FD28B921689D4879
:103338001BF0B1FD0026D1E04FF480319A481BF014
:1033480008FC014628B10823226898481BF0A3FD11
:10335800F0E7A5682369AE6996B11B68082113F4E4
:10336800807F14BF4FF000734FF080634FF0A0725E
:103378002046B047014630B1082322688C48E5E76B
:103388006FF05701F8E78B498B4B4B604FF4807314
:103398008B60EB6913B10122204698472168874C5E
:1033A800874808221BF077FD206850B11EF0E3FC27
:1033B80023680546F0B901461A6882481BF06BFD80
:1033C80025600127804B3A46217920681F701BF041
:1033D800E5FB7E4D28461EF0CEFC034618BB2A6846
:1033E8007B4903927B4A0090CDE901023A461BF0E3
:1033F800C5FB9FE7002BE4D04FF4003120461BF0BB
:10340800A8FB2379014638B12268734812681BF07B
:1034180042FD00232360D4E721681A4609686F48F3
:103428001BF039FDCDE7DFF8F0911E2200210DF1E8
:103438004A00CDF83C901EF05EFE694A694B4FF495
:103448007A51CDE9102328238DF848303C238DF894
:1034580049300DAB1493644BD5F80880CDE90D13B2
:103468008DF866708DF864702846D8F8003010A979
:103478009847061E06DA5D4B039602930023CDE9B2
:10348800003326E000F024FB00F01CF900220023A2
:103498000024CDE9062305234FF48052CDE90334F7
:1034A8005349544BCDE901445348009419F004F8AA
:1034B800014652481BF0EFFC39462846D8F804303C
:1034C8009847061E0EDA4E4B0396CDE90143234674
:1034D8000094012218463E491BF050FB30461BB0B1
:1034E800BDE8F08FDFF820A142F21072AB680092BD
:1034F8009E680021284609AB08AAB047061E02DAD2
:10350800404B0396B9E708990AEB44028B1E01F673
:103518007E4033F9026F834222F8026BF9D14846A4
:103528001EF081FC1BF04AFB4FF4A073364F04F5E4
:10353800B466B6FBF3F6B8464FF0000B40460AA94E
:1035480000F0DAF90AA90A2230481BF04CFE0A28D2
:10355800014602D02E481BF09EFC0BF1010B5E4584
:1035680008F52078EADC1BF029FB4FF4A0735E43D2
:10357800C6F5C8631C440023A3420BD1234AD38851
:1035880052899B1A9BB2B3F5F57FADD3214818F049
:1035980009FFA9E737F91620013327F8022BEBE7D3
:1035A800FC280200FDD4040088EF020023D50400A3
:1035B8004CD5040060EC0120E1320000D40000206A
:1035C80082D504009ED50400222B02205C2902002B
:1035D8002C3302001ED60400D1D5040005D6040001
:1035E80040420F00E06735001000800C2ED6040022
:1035F80068A002203532000078E8012051D6040086
:1036080069D6040082D60400F8180220C000002001
:1036180092D60400A81300201C13002020292DE9AD
:10362800F04105460F461446984607D11F481DF03D
:10363800E7F9BDE8F0411E481DF0E2B903681B68D0
:10364800984740B11B481DF0DBF939461A48BDE8D8
:10365800F0411DF0D5B9D5F8ACC0BCF1050F06D9BD
:10366800394616481DF0CCF906211548EFE74FF00A
:103678001C0E0FCC0EFB0C5E0EF104060FC694E870
:10368800070086E80700CEF81870D5F8E0300CF18E
:103698000102C5F8AC2005EB83020133C2F8B07013
:1036A800C2F8C880C5F8E030BDE8F08102D7040050
:1036B80033D7040048D7040077D7040098D704000C
:1036C800C9D70400F0B56A4B8FB00493694B282220
:1036D8000393694B4FF400710293684B6848019358
:1036E800684B694E00930A2309F0CCFF674B1968B1
:1036F800CA185B583260D31A198804290BD99988DB
:1037080011B15158032908D0032261481DF078F9F6
:1037180001200FB0F0BD0021F6E75E4FD7E8AF4FAC
:1037280014F001045C4D11D138461EF0AEFC68B1AE
:103738005A4B28465A4A5B492B60C5F8AC40C5F835
:10374800E0401CF07AF838461EF0ABFC07A807F0FA
:1037580001FB07AA0921544B4F48FFF75FFF07A851
:1037680007F0F6FF07AA0121504B4B48FFF756FF19
:1037780007A806F087FB07AA03214D4B4648FFF729
:103788004DFF07A807F04CF807AA0421494B424807
:10379800FFF744FF07A808F04FF907AA1621464B80
:1037A8003D48FFF73BFF07A808F02AFC1921434BC7
:1037B800394807AAFFF732FF414DD5E8AF4F14F05B
:1037C800010417D128461EF060FC98B147F2305327
:1037D800CDE90244009301943A4B2F4A31683A48A4
:1037E8001CF019FD2E4A394937481CF026F828469E
:1037F8001EF057FC3448364D286004F01BFA044686
:1038080018B134481DF0FCF882E70146286804F036
:10381800D1F8314E21463060286804F0E1F80346BB
:103828002E4A5B6B106032682D4D526B2D4E11681D
:103838005268486857682C492C4A086017601A680B
:103848005B6852685B6832602B60FCF79DFF02463C
:103858000B46274839461BF01EFB3068FCF794FFDF
:1038680002460B46234829681BF015FB204650E703
:10387800ACF4020090EF02006CF302000CF40200BA
:103888003C060220ACFC020038EE0120B0330200F6
:10389800DCD7040034ED012038ED0120F4020300E8
:1038A80080060220C9EB0100B9930000A194000032
:1038B80005920000F1920000E19500005D9500007E
:1038C8006CEC0120232B022070EC0120B5020200D1
:1038D80034EE012023D8040030EE01202CEE012024
:1038E8001CEE012024EE012028EE012020EE01200C
:1038F8003CD8040072D80400464A2DE9F0439FEDF5
:10390800467A0E469046831E8FB000F2BE3033F9D9
:10391800021F07EE901AF8EEE77A67EE877A83427D
:10392800E2EC017AF3D13D4C3A4A3D4D10466369C9
:10393800A168D4F8049008F075FC00232A4635499C
:1039480004F1200009F080FD6269696805EB8203D3
:1039580019601946002302324B6028462D49520847
:103968006B60002708F0FCFCA269974237D32C490A
:103978009FED2C0A084608F0ADFC2949A2690846C3
:1039880008F05EFDE3692649ADF80830A36904AA8A
:10399800ADF80A30236802A80393234C08F060FDB1
:1039A8002248711E04AA0936F2EC016A90ED007AE9
:1039B800C6EE877AF8FE677AFDEEE77A17EE903A58
:1039C80025682B447F2B20DC13F1800F1FDB5BB2B3
:1039D80001F8013F8E42E7D10FB0BDE8F083D4E98A
:1039E800033253F82700494652F8272001AB08EB69
:1039F800800008F0CBFB236953F82730013709EB27
:103A08008309019B45F8043BAEE77F23E0E76FF0AD
:103A18007F03DDE73CFE0120000000383C06022061
:103A28003CEE0120BD37863520EE012028EE01202E
:103A3800F8B504460D461EF019FB4FF47A76A0FB44
:103A48000607002306FB017147F61222FDF76CFA00
:103A58000023064619480268E1565268D1540133DA
:103A6800B3F5F57FF7D1164B186804F0CFF9044683
:103A78001EF0FCFA4FF47A77A0FB070C47F61222E7
:103A8800002307FB01C1FDF74FFA811B0D481BF00E
:103A980002FA24B1BDE8F8400B481BF0FCB90B4B07
:103AA80020461B685A6823461156D4568C42B8BF24
:103AB800034601300C28F7D12B60F8BD30EE012009
:103AC80034EE0120A9D80400CAD804002CEE012045
:103AD80010B501F087F8044620B1BDE81040094848
:103AE8001BF0D9B901F0C8FA6FF002031322064996
:103AF80001F000F9054B064AC3E9012440F61962B2
:103B08001A6010BDD9D804005A0C090074060220A6
:103B1800080303002DE9F047214E0F463246B1460F
:103B2800431E00F2E91013F9011F834202F8011B3A
:103B3800F9D11EF09BFA8846054601F09DFA00234C
:103B4800032218491BF031FE1EF090FA4FF47A74E4
:103B5800A0FB040C47F6122204FB01C10023FDF769
:103B6800E3F98246A5FB040147F61222002304FB71
:103B78000811FDF7D9F9AAEB00010B481BF08BF9E6
:103B880000231A4616F9011B19F902008842B8BF2A
:103B98001A4601330C2BF5D13A60BDE8F08700BF17
:103BA800B813002074060220A9D804002DE9F04FAC
:103BB80091B0009302F004030293C2F3C2030133ED
:103BC800840705460E46DDF868800392059340F0A9
:103BD800BB81041D30B1072909D86FF01B0011B053
:103BE800BDE8F08F01F007063444C6F10806009BD3
:103BF8004FF000094FF0040A591E4FF0FF334F46AB
:103C08000193CB465346CDF810900DB10098206033
:103C18000598002800F3E8809848009A824203D368
:103C280097488242C0F0E080039AA4EB050E920701
:103C38004FEA9E0000F103810F2F00F2B180002DA2
:103C480000F0058107F140020DEB020C019A0CF817
:103C5800200C0CF8102C049801300490E7E07A2826
:103C68005DD84B280ED8472859D829282DD825287B
:103C780052D054D820287AD02338D0F1000B4BEBFF
:103C8800000B74E04C382E2849D8DFE800F0704863
:103C9800484848484848484848484B484848484899
:103CA80048484859484B4B595959704B6D487048CA
:103CB800184B184848827F4B48484B487F000020E3
:103CC8004FF0000B4FF0040A38E001222A38C0B246
:103CD80002FA00F010EA0E0F49D110F0625C2FD101
:103CE80010EA020B43D06046013C5444B4FBFAF49A
:103CF8000AFB04F4002D61D0A3EB050CA444B445E1
:103D08003FF66BAF002868D1042B47D158F8043B25
:103D18002360042304342AE0019A013A01924FF007
:103D2800000B24E011F8010C6C2834D1002011F8A4
:103D3800023C83466C2BC5D14FF0080A5346D3E7A3
:103D480008F1070828F00708073424F00704F8E802
:103D580002AB35B106982044B0423FF63EAFC4E905
:103D680000AB4FF0000B08344FF0080A534611F827
:103D7800010F002878D0BBF1000F7FF470AF252821
:103D8800F5D14FF0010B019B013301934FF0040A69
:103D9800ECE7584694E700208346A5E7082B02D0B5
:103DA8006FF015001BE708F1070828F00708B8ECC2
:103DB800027B84ED007B08230834D8E768B9042B1C
:103DC80002D108F10408A4E7082BE9D108F1070893
:103DD80028F0070808F10808EDE70598013805906C
:103DE80058F8040B009010E7039A900720D54FF07D
:103DF800010CA4EB050E4FEA9E00BEF5007FCFD262
:103E08000F2FCDD8F5B107F140020DEB020E019A44
:103E1800C0B20EF8200C0EF8102CBCF1000F3FF4C5
:103E28001AAF60F07F000EF8200C09F10109013784
:103E3800C5F108024FF6DA7E0434069297E74FF090
:103E4800000CDAE7BCF1000F01D00136EFE7029A67
:103E58000236002AEBD10098CDE90631FDF7C6F805
:103E6800DDE906310644E2E7631BB3F5806F97D2BC
:103E780045B9A6F10804E018B1E600BF54280200CD
:103E88004C180500029A9B0828602B709DF810308A
:103E9800C2B1EB7085F80290B9F1000F05D000228D
:103EA80008A8C5F1010C97420ED14FF0000AC5F1E0
:103EB80001030DF1200801930DF1300B574512D184
:103EC800601B8CE66B70E5E710F8013B190608D516
:103ED8000CEB040EB64503F07F033FF67EAE04F804
:103EE800013B0132DFE7B9F1000F03D098F9002058
:103EF800002A17DB029BD3B11AF80B2004F8012B18
:103F08000022019B18191044B0423FF666AE98F89B
:103F18000000009904F8010B204603921EF0DEF819
:103F2800039A14440AF1010A08F10108C6E798F84F
:103F3800002055F822300093029B009845F8223063
:103F4800FDF754F8421CDCE76FF00D0047E600BFB0
:103F5800014B1860704700BFDC000020F0B5024636
:103F680001680A270020074E0B461C780131355D91
:103F78006D0701D41360F0BD07FB0043A3F13000C7
:103F8800F2E700BFE61505002DE9F84F15469A46F9
:103F9800D378234A6F2B12F803B081460F460BF0F3
:103FA800030B2BD026D8582B0CBF10260A26DDF879
:103FB80028803246002348463946FCF7B5FF092ACF
:103FC80008F1FF38D4B21ED83034B145E4B277F1E5
:103FD800000788F8004001D3D04511D82B789B06FC
:103FE80005D5082E15D1AB7843F00803AB704046D1
:103FF800BDE8F88F03F0F703702BD5E70826D6E75E
:1040080081460F46D5E7BBF1010F0CBF3734573453
:10401800DBE7102EEBD1AB7843F01003E6E700BFE7
:10402800E61505002DE9F047858B044628079046DC
:1040380011D4022905F0070540F0CC8020461AF07B
:1040480087FF78B10138A18B042811D8DFE800F088
:10405800C2106D85950001290CBF45F0100545F08B
:104068002005A58388F31188BFF36F8FBDE8F0871B
:1040780001F0070AAA4500F0A5800027B9463E4688
:10408800A368002B00F0BC8041F00801A18388F3ED
:104098001188BFF36F8FA168002900F0BA800D68FE
:1040A800002900F0B680334652462046D1F80480F5
:1040B800C047002D76D02B6829461D46F0E701F051
:1040C80007035A1F012A1BD8002221F00701062BDB
:1040D800276889B2C4E9002209D13B4603E0E28B94
:1040E8000132E2831B68002BF9D141F0020120461E
:1040F800A1831AF02DFF00287AD041F0200176E044
:10410800042B0AD121F0070189B22046A1831AF0B5
:104118001FFF10B141F02001A183A18B01F0070A14
:10412800AA454FD00027B946AAE7236921F007011D
:1041380041F00601062DD3F80090A1832DD1B9F1E5
:10414800000F3FD041F00801A18388F31188BFF325
:104158006F8F20463949C84729E021F007012369B4
:1041680041F0040189B2042DD3F80490A183E6D06C
:1041780000274FF0040A3E4682E721F00701236931
:1041880041F0050189B2052DD3F80890A183D6D056
:1041980000274FF0050A3E4672E700274FF0060A4F
:1041A8003E466DE72B4687E7B9F1000FD1D1EFF313
:1041B8001188202383F31288BFF36F8FA38B23F01A
:1041C8000803A383A58BEA062ED525F01003A38345
:1041D80005F00705A669A18B002EBFF670AF002376
:1041E8002768C4E9003321F0070141F00101A183E8
:1041F800A18B4FF0000901F0070AAA457FF440AFF0
:10420800002F9CD041F00801A18388F31188BFF3E7
:104218006F8F002FC8D03D68394633465246204636
:104228001AF0C2FE2F46F4E7AB067FF51BAF25F068
:104238002003A38305F0070500E700BFDDEF0100B9
:104248002DE9F84F814630480F461BF034F80646F2
:1042580070B92E4C0546A0464FF0010ADFF8B0B001
:104268005C4507D3B9F1000F02D04FF0010AFDB940
:10427800BDE8F88F237B83B12368DB680BB1204648
:104288009847636883F806A023681B6943B9636885
:104298000422204619681BF02FF801361034DFE796
:1042A800204698470028F2D00AFA06F31D43F4E79F
:1042B800A94695FAA5F4B4FA84F40AFA04F3260197
:1042C80008EB04146FEA030B25EA0305237B63B1AB
:1042D80058F806301B6993B946447368042220468F
:1042E800196809EA0B091BF007F8002DE1D127B17D
:1042F80040F23910002118F07BFB4D46B7E7204605
:1043080098470028F1D1E7E78C06022074330200B1
:1043180084330200014B53F8200070479C9103003E
:1043280008B5034608462BB1044A136000F07EFA2C
:10433800002008BD6FF01500FBE700BFE00000207B
:1043480000230C4A10B513700B4A0C4913600C4A31
:104358000C481360FFF7E4FF0B4B0C4918468B42DF
:1043680000D310BD1A1A5C68121101322271103381
:10437800F5E700BF53A002208406022040420F0048
:1043880088060220BBF20100743302008433020065
:1043980070B50B4D297841B90120FFF751FF094C41
:1043A800094EB44202D301232B7070BD63685B7958
:1043B8001BB1236820469B6898471034F1E700BF7B
:1043C80053A00220743302008433020010B504465F
:1043D80006481AF070FF3CB1054BD3E8EF1F0139CE
:1043E800C3E8E21F002AF8D110BD00BF84060220EE
:1043F8008806022070B50A4B05461B689847094C89
:10440800094EA860B44200D370BD63685B7923B1DC
:104418002368294620461B6898471034F2E700BFF6
:10442800E00000207433020084330200044A054B84
:104438009B1AB1EBD30F34BF52F8310000207047FC
:104448000C330200743302002DE9F04F87B004AF3B
:104458000446D7E90EA90E46934698463D6BBAF135
:10446800000F1ED0C7F80490CDF8009010215346D5
:1044780000207A6BFFF79AFBB0F5006F014611D365
:1044880040F2FF730393194B022202930023184949
:104498001846CDE900331AF051FF0C37BD46BDE888
:1044A800F08F514604F007040BF0070BE40044EAD0
:1044B8008B1444EA412444EA055417350D4425F089
:1044C8000705ADEB050D04ADBAF1000F07D0CDF827
:1044D800009053467A6B05F11000FFF767FB4346DF
:1044E8002246314628461AF010FFD6E719D90400AB
:1044F80034330200406820B1034BC01A40F3CF00A8
:1045080070474FF0FF3070470C3302000EB403B50C
:1045180003AB53F8042B0146044801931AF048FFF3
:1045280002B05DF804EB03B0704700BF81F30100EF
:10453800CA0605D48B064CBF02490349FFF7E6BFFC
:10454800704700BF52D9040051D904002DE9F04F3B
:1045580089B09DF84CB004460D4690469946179E82
:10456800BBF1000F00F09E8006F00103069306F0F1
:104578000803059306F4807307931AF0BBFE06F050
:10458800020A024600283BD020469349FFF7BEFFA7
:104598000746BAF1000F08D016F0440F32D12A4668
:1045A80020468E49FFF7B2FF0744069B53B18C4B58
:1045B800204653F82B208B4B8B49002A08BF1A46FC
:1045C800FFF7A4FF079B002B48D0059B002B62D167
:1045D800B8F1000F64D0424620468449FFF796FFA1
:1045E8000546149B3D44002B6BD1169B002B71D1C3
:1045F800F30700F1EA8031462046FFF799FFD7E03C
:104608000746C6E77A4B18680028CDD0794B4FF497
:104618007A7A1B684FF03C0CB5FBF3F5B5FBF0F16B
:104628004FF4616300FB11550AFB05F5B1FBF3F28A
:10463800B5FBF0FE03FB121100FB1E55B1FBFCF3AA
:104648000AFB05F5B5FBF0F50CFB131120460091AC
:10465800CDE901E56849FFF759FFA5E7059BEBB1EF
:10466800664B204653F82B206549FFF74FFF054658
:10467800B8F1000F05D0424620465C49FFF746FFD7
:104688000544B9F1000FACD04A4620465D49FFF712
:104698003DFF0544A5E74FF00009E1E7059DE7E781
:1046A80045469EE7B9F1010F149B06D1002B65D151
:1046B800169B002B7CD000250CE0002BF8D052482C
:1046C8005DE05248149B224651491AF0AFFB169BF5
:1046D800002B69D0DFF84C81DFF84C91169F3146EA
:1046E800102F204628BF10274FF0000AFFF720FFA1
:1046F800554546DC159B494620461A78FFF706FFC4
:104708004FF0010A1AF0070F03D141462046FFF780
:10471800FDFE57453CD9159B4946204613F80A200B
:10472800FFF7F4FE0AF1010ABAF1100FEAD14FF0CF
:10473800000A20463749FFF7E9FE5246159B2046F6
:104748009A5C354B995C11F0970F08BF2E223349BC
:10475800FFF7DCFE0AF1010ABAF1100F1DD01AF0BA
:10476800070F03D141462046FFF7D0FE5745524672
:10477800E4D841462046FFF7C9FEEBE723485D46EB
:10478800A0E741462046FFF7C1FE0AF1010AAFE75C
:1047980020462349FFF7BAFEC4E7159B3B4415930F
:1047A800169BDB1B169399D1BBF1000F7FF420AF4A
:1047B8006268A168D2E9002320681AF0CFFD0022C0
:1047C80063681A6009B0BDE8F08F2046054A0649BB
:1047D800FFF79CFE0FE700BF59D904005DD904001C
:1047E800AC91030054D90400A3EC040082D904005E
:1047F800940602209006022066D90400C0910300A6
:1048080086D904008CD904009DF3010081F30100CE
:10481800B9F301009BD90400E61505009DD90400F1
:1048280097D9040020EC040091D904000021012349
:10483800064A904206D8064A01B901231360054B7F
:1048480018607047012140085B00F2E740420F0002
:104858009006022094060220F8B50D460446064F3D
:104868004618B44201D12846F8BD14F8011BBB68AC
:1048780001485B689847F4E73C290200014B036054
:10488800002070470892030008B504481AF003FB9B
:10489800BDE8084002481AF0FEBA00BFDAD90400A1
:1048A80010DA04002DE9F04F8900172982461446D2
:1048B80085B040F21381002A00F01081D3899589D0
:1048C80015FB03F51368ADB24FEA850903EB850CB8
:1048D8006345278A1BD115FB07F7BFB23E464FF049
:1048E800000BD4F80080BB1B9BB29F422ED8002738
:1048F80023680293029B03EB870ABBB29D4240F2F6
:10490800F280002351461E469B46208A4FE0002035
:104918001A6803EB0906013081B28F420AD819469A
:104928000026A2F5F3424E3A278AB0B2874207D84A
:104938000433CDE731684E448A42B8BF0A46EAE7F5
:1049480008680136801A08604944EDE7B6F5007F2B
:1049580022D8032E19D8C8F80CB00FD1042302228C
:1049680001215046CDE90021A6F500764246414690
:1049780000F092FA08F50068B6B2B4E7012EC8F85C
:1049880008B0EBD1C8F804B0E8E7F00707D5731C06
:1049980048F826B09BB2E2E74FF40073DFE73346EE
:1049A800DDE70A68013396194BEBE27B49449AB27A
:1049B8009042F6D856EA0B0304BF01264FF0000BCD
:1049C8004FF00008228A1FFA88F39A4201D801376B
:1049D80090E7DAF80000A1684FEAE07EA0FB010C3E
:1049E800324601FB0EC15B46FCF79EFAA27C03919E
:1049F80094F91310A2F1200ECB17C2F1200C21FA62
:104A08000CFC934001FA0EFE9140091843EA0E038C
:104A1800039843EA0C0343EB0003C2F1200CB2F104
:104A2800200058BF43FA00F021FA02F103FA0CFC07
:104A380043FA02F3227D41EA0C0158BF0143022ADE
:104A48001CD0042A32D0012A0FD1802973F1000228
:104A58000FDA11F1800F73F1FF330CDB49B2636891
:104A68001FFA88F205FB0233D955CA4408F1010838
:104A7800A8E77F21F3E76FF07F01F0E7B1F5004F7A
:104A880073F100020DDA11F5004F73F1FF330BDB00
:104A980009B21FFA88F305FB0373626822F8131042
:104AA800E3E747F6FF71F4E71049F2E7B1F1004F89
:104AB80073F100020CDAB1F1004F73F1FF330ADB36
:104AC8001FFA88F205FB0272636843F82210CCE7EC
:104AD8006FF00041F4E74FF00041F1E74FF0FF308D
:104AE80005B0BDE8F08F0020FAE700BF0080FFFFA7
:104AF80038B5064D064C4FF0FF324FF0FF332846CD
:104B080017F084FC20681AF03DFEF4E778130020C3
:104B1800C806022008B500F027FB032804D1BDE829
:104B28000840024817F03EBC08BD00BF78130020BB
:104B38004FF0FF324FF0FF33014817F067BC00BF5A
:104B480098130020014817F02DBC00BF98130020CF
:104B5800014817F027BC00BF7813002038B517F0BC
:104B680099FF0A4D04462B6883420CD02B6813B179
:104B7800074B984207D04FF0FF324FF0FF330548FC
:104B880017F044FC2C60012038BD00BFC00602208D
:104B980038E901208813002008B5094B18681AF075
:104BA800F3FD084B28B1084A1A60BDE808401AF01E
:104BB800F7BD18600548BDE8084017F0F3BB00BF13
:104BC800C8060220C006022038E901208813002008
:104BD8000022024B1A60024817F0E4BBC00602200C
:104BE8008813002010B5114B86B00393104B082290
:104BF800029300230F4C1846CDE900320E490422D7
:104C080004941AF045FC204600F066FA044650B9B0
:104C180000F032FA094B224618600121562000F0B4
:104C2800C3FF1AF052FC204606B010BDC0DA0400DB
:104C38003EDA0400006005504C330200C80602202A
:104C480038B5214C23685A1C2260002B37D11F4AE3
:104C58001F49D2F800341F4843F00103C2F800345A
:104C6800A2F50042D2F818350B6023F0030343F095
:104C78000103C2F818354FF48053C2F810351AF002
:104C880017FC154A136B43F0010313634FF47A734F
:104C9800D2F82015A9B911481AF00AFC104D11498B
:104CA8002A4611481AF004FC104BD3F87824AA427B
:104CB80005D02A46D3F878140D481AF0F9FB206875
:104CC80038BD013BE4D1E9E7BC060220006005508D
:104CD800C406022058DA040000E010506BDA040021
:104CE80004010401782408E07DDA0400002008E0CB
:104CF800AADA040038B50446102A1448C6BF103A88
:104D080052B2C2F110020360114BCCBF1141914065
:104D18001960104B03211048104D1C601AF0C8FB95
:104D28000F4910481AF0C4FB40F2A33228460E4936
:104D38001AF010FD3CB16B682BB12868B0FA80F00E
:104D48004009404238BD4FF0FF30FBE7E41602202F
:104D5800780F0020E8160220E9DA0400CC060220C9
:104D6800FCDA040043DB0400EC00002000210368A7
:104D7800124AC3F880170368C3F874270268D2F888
:104D8800743761F30003C2F8743703680C49D3F829
:104D980074274FF09F52C3F874274FF0FF3302680F
:104DA800C2F87C370268C2F878170268C2F88437FC
:104DB8000268044B8361C2F8803770470100000223
:104DC80000600018FEFFE0FF11F01E0F70B50546E9
:104DD8001BD0002403680D4EC3F8744703680C48C1
:104DE800C3F884171AF064FB2A68A30003F5E0638C
:104DF80021463046D25801341AF05AFB232CF3D1FD
:104E08002846BDE87040FFF7B1BF70BD7BDB0400EA
:104E180065DB04001FB50446002832D0FFF710FFF9
:104E28002368D3F84817B1F5877FE16010D00123D4
:104E38000E22CDE90132002313480093C1F3072263
:104E4800CBB2C1F307411AF033FB10481AF030FB1C
:104E58004FF09F5223680020C3F874274FF0FF33A8
:104E680022680B49C2F87C372268C2F87817226892
:104E7800C2F884372268074BA361C2F8803704B0B0
:104E880010BD4FF0FF30FAE78BDB0400D9DB0400DC
:104E980000600018FEFFE0FF2DE9F0411C46043BCE
:104EA800B3F5FE7F0546884616469DF81C7026D841
:104EB800E30724D41AF032FB1249C4F30B04CB885D
:104EC8000A8864F30B03CB800B8A284664F30B0330
:104ED8000B820B8E013264F30B030B869DF818309E
:104EE800C1F80C80022B38BF0223CE6200F0A0F973
:104EF80004460FB9FFF750FE2046BDE8F0816FF079
:104F08000104F9E7840F00200368044AC3F8202548
:104F180082690368C3F88027704700BFF2F303FE75
:104F280090F83C200346012A09D10168D1F82425CC
:104F380042610A48104018B1C1F8242570470AB1E7
:104F4800002070470268D2F88417C161C069996966
:104F58000840F5D0DB69C2F884377047F2F303FEE6
:104F68002DE9F04190F83930044683B9066B35686D
:104F7800AA68501C52D094F83D305BB900212A46EB
:104F880020461AF0CDFA012805463AD116E0002647
:104F9800456BEDE76B6803EB8203DB78190711D5E6
:104FA80094F83C30042B1AD16169304B0B4013BB89
:104FB800227D92071BD42E481AF07AFA012528463A
:104FC800BDE8F08194F83C30013B18BF012384F818
:104FD8003C302046FFF7A4FF0028FAD0E0E7012B79
:104FE800E2D0637FDB0716D4E1692248E4E7636116
:104FF80084F83D30C2E700236FF0D205636184F87E
:105008003D3094F839305BB1032BD8D12046658701
:10501800FFF798FDD3E70023E361E9E70121AEE755
:105028001AF056FA236BDF68B7F10008276318BF38
:105038004FF001081AF054FA37B9FFF7C9FDB36801
:105048007BB90FFA88F5BAE7B36833B9236B012146
:1050580020461A681AF064FAF3E7284671689847F8
:10506800F4E7284671689847EBE700BFF0F303FEC2
:10507800FFDB040022DC040000487047FC16022015
:105088000368D3F8242522B1D3F8241501481AF06F
:105098000FBA704746DC0400002138B503684FF0AA
:1050A800FF35C3F820151AF061FB01220446036896
:1050B800C3F808250368C3F808150368C3F824551E
:1050C800FFF7DEFF2368034AC3F848552368C3F88F
:1050D800402538BD0E0003107FB502231D4D286002
:1050E80085F8383088B3FFF7ABFD2B68D3F8006537
:1050F800D3F80445B6F5005F6E60AC6002D1B4F534
:105108008A7F19D014481AF0D3F94FF40052314667
:1051180012481AF0CDF901231422CDE901320023F7
:105128000F480093C4F30722E3B2C4F307411AF00F
:10513800BFF90C481AF0BCF90648FFF7ADFF05485F
:1051480004B0BDE87040FFF765BE6FF0C80004B05A
:1051580070BD00BFFC1602207FDC0400A3DC040045
:10516800D2DC0400D9DB040010B5284C94F83C20AC
:105178002368012A36D1D3F82415C3F82415244B03
:1051880061610B400BB311F0D00F0AD0214801F038
:10519800F0011AF08DF923681F48D3F848151AF062
:1051A80087F963691D49194011B11D481AF080F942
:1051B800616911F0200102D01A481AF079F91A48E9
:1051C8001AF076F91148FFF767FF616921B10123E9
:1051D800032084F83D3010BDE26914481AF068F9DC
:1051E8000020F8E7D3F884272046E261E269C3F893
:1051F8008427E169FFF7E8FDE36923B12368D3F861
:105208008037002BE3D1E2696169E6E7FC160220EA
:10521800F0F303FE13DD040028DD040000F303FEB1
:1052280038DD04004DDD040068DD04007ADD04008B
:1052380070B516461D46104A80F83930013B012BDF
:105248000446C2E9006142630CD800230168C1F832
:1052580020350168C1F8803701211AF061F9012869
:1052680005D070BD01211AF05BF9002DF7D1204659
:10527800BDE870401AF035BAF01602202DE9F04763
:1052880080460D468CB0002966D000248B68012228
:1052980005934B68204604930B683B4903933B4BAB
:1052A800CDE90044029323461AF0ACFA6B69012257
:1052B80005932B6920460493EB6833490393344BD9
:1052C8000094CDE9014323461AF09CFAEB690122C8
:1052D8000393304B2046CDE901432B4923460094E4
:1052E8001AF090FA2F462646DFF8B8A0DFF8989013
:1052F800FB6A01220A93E31C0993BB6A4946089397
:10530800A31C07937B6A10370693631C05933B69BC
:10531800CDE9016ACDE90343002300961846043419
:105328001AF070FA102CE3D12B6E012203931A4B5A
:105338001549CDE901630023009618461AF062FA70
:10534800AB6901220393154B0F49CDE90163002393
:10535800009618461AF056FAB8F1010F0DD1EFF37E
:105368000583103B03930E4B4246029300230649E4
:105378001846CDE900331AF045FA294640460CB0E4
:10538800BDE8F04716F0B6BC5C3302009DDD0400B2
:10539800CCDD0400FBDD04004DDE04005CDE04000F
:1053A8008ADE04000ADE040030BFFFF7FDBF00BF3D
:1053B800054B9A699B689A421FBF044A536843F099
:1053C80080535360704700BFB818022000ED00E01A
:1053D800F0B50024414B85B00293074623460E469C
:1053E80001222046CDE900443D491AF02BFA3D4BF5
:1053F8009B6ADD066FD53C4B2046CDE9014301226F
:105408002346374900941AF01DFA1120354B9B6A40
:105418001C070AD5354B0122029300233049184650
:10542800CDE900331AF00EFA12202E4DAB6A990717
:105438001FD500242E4B0122029320462346CDE996
:10544800004427491AF0FEF96B6BAA6A12060FD5B9
:105458000393284B0122CDE90143204623462049E6
:1054680000941AF0EFF91FB1AB6A23F08003AB6226
:1054780013201C4B9B6ADD070AD51F4B01220293A0
:10548800002317491846CDE900331AF0DBF9142038
:10549800144B9B6A9C060AD5184B012202930023E1
:1054A8000F491846CDE900331AF0CCF915200D4BF9
:1054B8009A6AD10658BF9A6A9A6A920642BF5A6A8D
:1054C80022F400525A629A6A42F0FF029A6200235A
:1054D800337005B0F0BD102098E700BF9DDE0400D2
:1054E8005C33020000ED00E0B3DE0400E6DE0400F9
:1054F800F9DE040011DF040027DF040046DF0400A2
:10550800F0B50024434B85B00293074623460E4668
:1055180001222046CDE900443F491AF093F93F4B58
:105528009B6ADB0465D53E4B2046CDE90143012249
:105538002346394900941AF085F91720374B9B6A9E
:105548001D050AD5374B012202930023324918461C
:10555800CDE900331AF076F91820304DAB6A9C0576
:105568001FD50024304B012220460293CDE9004488
:10557800234629491AF066F9AB6BAA6A10040FD5BD
:1055880003932A4B0122CDE90143204623462249B1
:1055980000941AF057F91FB1AB6A23F40043AB62C9
:1055A80019201E4B9B6A59050AD5214B01220293EB
:1055B800002319491846CDE900331AF043F91A2097
:1055C800164A936A13F4807315D01A4B012202937A
:1055D800002311491846CDE900331AF033F91B208E
:1055E8000E4A936A43F47F4393620023337005B0F5
:1055F800F0BD1620A2E7926A9204F1D50E4A184629
:10560800CDE901320449012200931AF01BF91C204C
:10561800E6E700BF75DF04005C33020000ED00E040
:105628008BDF0400E6DE04009CDF0400B5DF040025
:10563800CADF0400E5DF040046DF04001FB50024CC
:105648003E4B3F490293012223462046CDE90044C0
:105658001AF0F8F83B4B9B6A99016DD53A4B2046F6
:10566800CDE9014301222346354900941AF0EAF8AE
:105678001E20344B9B6ADA010AD5344B012202936F
:1056880000232F491846CDE900331AF0DBF81F2014
:105698002C4B9B6ADB020AD52D4B01220293002377
:1056A80027491846CDE900331AF0CCF80220254BDB
:1056B8009B6A1C030AD5274B012202930023204929
:1056C8001846CDE900331AF0BDF821201D4B9B6A1E
:1056D80059030AD5204B0122029300231849184682
:1056E800CDE900331AF0AEF82220164B9B6A9A03D4
:1056F8000AD51A4B01220293002311491846CDE915
:1057080000331AF09FF823200E4B9B6ADB030AD55F
:10571800134B01220293002309491846CDE90033AF
:105728001AF090F82420074A936A6FEA03436FEA55
:105738001343936204B010BD1D209AE7FDDF0400F7
:105748005C33020000ED00E015E0040028E00400EE
:1057580042E004006CE004008AE00400AFE00400CA
:10576800C9E004002DE9F041714B06465F68A2B01C
:105778000023C7F3080483F31188BFF36F8F02F087
:105788007F40B0F17F4F0CD102F00C00082819D1EE
:10579800684A1846CDE901326749012200931AF098
:1057A80051F800252E464FF00008E31E8DF81F80A3
:1057B800092B00F2A480DFE803F00B989C94A2A2C6
:1057C800A2A2A2A0120746BF0E461D460125EAE77F
:1057D8005A4B0122CDE90183002357491846544FFB
:1057E800CDF800801AF02EF88DF81F80FC6A14F0AE
:1057F800020405D0524BCDE90183CDF8008006E0C4
:10580800FB6A002B0BDA4F4B0094CDE901430023D0
:105818000122184648491AF015F8002439E0FB6AB5
:105828005B00FAD5484B0122CDE9014320462346C7
:10583800414900941AF006F87B69B26943F4807311
:105848007B61BFF34F8FBFF36F8F7B6932F8022CF8
:1058580023F480737B61BFF34F8FBFF36F8F4DF6D7
:1058680002739A4208D0BB6ADBB263B301200DF120
:105878001F01FFF7ADFD36E0336820460393334B35
:105888000094CDE90143012223462B4919F0DAFFA0
:1058980034689DF81F309BB96822314608A81CF06F
:1058A8001DFC0F9B002D3ED0C3F3080222B96FEAFE
:1058B80053236FEA43230F93204608A9FFF7DEFC22
:1058C80022B0BDE8F081BB6A13F47F4F05D00120F8
:1058D8000DF11F01FFF714FE05E0BB6AB3F5803F29
:1058E8009BD3FFF7ABFE0446D3E700200DF11F0161
:1058F800BFE700200DF11F01ECE7154B7BE7154AC8
:1059080017F4F87F144B18BF1346103CCDE9033445
:10591800124B01220293002307491846CDE90033B0
:1059280019F090FF79E723F4FF7323F00103C2E72E
:1059380000ED00E022E104005C3302004DE10400C8
:1059480064E1040085E1040093E10400B2E104008D
:10595800CEE1040009E10400F4E00400F2E10400EF
:10596800064B5A6942F010025A615A6942F4806241
:105978005A615A6922F008025A61704700ED00E046
:10598800EFF30880EFF3098101B57246FFF7EAFEED
:1059980001BD00BF002080F31488BFF36F8F002083
:1059A80080F30A8880F30B880F4880F3088814F086
:1059B8004DFF00200D490860BFF34F8F00F02CF811
:1059C800202080F311880A484FF40061401880F3C2
:1059D8000988EFF314800221084380F31488BFF389
:1059E8006F8F00F005F9000078E1022094ED00E0E7
:1059F80038B80220002318460649D1F89020C2F38F
:105A08000722934200DB7047C1F89830C1F8A00024
:105A18000133F6E700ED00E010B572B6002484F318
:105A28001388FFF7E7FF23464FF0FF300C4A03F1D6
:105A380020010133102B42F82100F8D100234FF048
:105A4800FF30074A03F160010133102B42F82100AF
:105A5800F8D162B6BFF34F8FBFF36F8F10BD00BF91
:105A680000E100E0084B9B6883420BD1EFF305830C
:105A780043B1064B5A6842F080525A605A6A22F47F
:105A880000425A6217F00CB8B818022000ED00E086
:105A980022498A6882F8BDE04FF030001044EFF3E5
:105AA800098C80E8F01F1EF0100F03D102F17C0072
:105AB80080EC108A202080F31288BFF36F8F184F74
:105AC8004FF000668A698A603E6092F9BDE0506FC7
:105AD8000023536780F311881EF0100F03D00023B2
:105AE800E1EE103A03E002F17C0090EC108AEFF34B
:105AF800148323F0040383F31488BFF36F8F02F138
:105B0800300090E8F01F8CF3098802F1000004B51A
:105B180019F0ACFEBDE8044070470000B818022038
:105B280004ED00E01EF0040F0CBFEFF30880EFF364
:105B38000980816911F8021C0229FFD001B572465B
:105B480019F070FE01BD00BF00B2002807DB012379
:105B58004109034A00F01F00834042F82130704792
:105B680000E100E000B200280CDB012206494309ED
:105B780000F01F008240203341F82320BFF34F8FED
:105B8800BFF36F8F704700BF00E100E0054B42098B
:105B980053F82220012300F01F0003FA00F0104000
:105BA800704700BF00E100E000B2002801F10101E8
:105BB800ACBF00F16040064B4FEA4111C9B2ABBF20
:105BC80000F5614000F00F0080F800131954704789
:105BD80014ED00E0044B054A23F07F039360BFF304
:105BE8004F8FBFF36F8F70470000000000ED00E09B
:105BF80008B5FFF7EFFF104BD3F8882022F47002A6
:105C0800C3F88820D3F8882042F4A002C3F888207B
:105C18004FF04042C3F83422BFF34F8FBFF36F8F6A
:105C28000023E1EE103A16F051F917F05FF800F092
:105C380077F816F08BF900BF00ED00E042F8203C41
:105C4800009B0D4942F81C3C019B21F0010142F8E0
:105C5800183C029B42F8081C42F8143C4FF0807331
:105C680042F8043C002343674FF47D43203A026521
:105C7800C0F8BC30704700BFB9EE0100104B9B68FC
:105C880083421AD1EFF30580B8B9EFF311812022CE
:105C980082F31288BFF36F8F1A7B22F002021A7305
:105CA800EFF3148323F0040383F31488BFF36F8F97
:105CB80081F31188BFF36F8F70476FF0150070473D
:105CC800B81802200E461546002300B5E1EE103A3A
:105CD800EFF3148323F0040383F31488BFF36F8F67
:105CE800BFF36F8F084B9860436E83F30B882C4685
:105CF80086F309880020054B98472046002100229A
:105D08000023034C204700BFB81802207DF801008B
:105D1800B9EE01001022014B1A61704700ED00E056
:105D2800002320210448C2180133B3F5917F82F87B
:105D38000013F8D1704700BF00E100E008B5EFF3A9
:105D48000583064A103B02EBC30152F83300496849
:105D58008847BDE80840FFF72BBB00BF7C2902003D
:105D68001FB5094C094A23460121094800F020F9CA
:105D780000230393074B0121E41A01A8019302941D
:105D880000F020F904B010BD00FC0720000000203E
:105D980008980300B813002010B50C7A0B6804F0BB
:105DA8001F0223F01F031A43CB68640923F01F0363
:105DB800054943EA440343F00103C1F89800C1F8D8
:105DC8009C20C1F8A03010BD00ED00E01FB50E4BBF
:105DD8000446D3F89030C3F30723013B98420FD908
:105DE8000A4B03900293002301221846CDE90033A1
:105DF800074919F06BFD6FF01504204604B010BD7B
:105E0800FFF7CAFFF9E700BF00ED00E009E2040070
:105E1800543302002DE9F04F8946144606464FF0E8
:105E28000008544D89B0C8452DDAD6F804A0BAF157
:105E3800000F4AD0BAF11F0F17D91AF01F0F14D14B
:105E4800D6F800B01BF01F0F0FD1584619F035FDDA
:105E580007460AEB0B00013819F02FFD874216D0D0
:105E68006FF01507444B039702E0444BCDF80C80C4
:105E78000293002301221846CDE90033404919F066
:105E880025FD6FF01504204609B0BDE8F08F17F125
:105E9800160FE7D0BC42E5DDC5F89870D5F89C1020
:105EA800C5F89870D5F8A03021F01F0143F01F0BFA
:105EB800D6E900321A44994202F1FF3A1DD1D3457E
:105EC80007D13146F8B219F011FD08F101080C3676
:105ED800A9E73146C5F89870D5F89C3022F01F0222
:105EE80003F01F031343C5F89C30E0B219F0FEFC21
:105EF80010F1160FC5D0441CE7E7C5F89870D5F81F
:105F0800A020013B23F01F0302F01F021343D345D7
:105F18003146E0B2C5F8A030E8D019F0E7FC10F13E
